{
  "contractName": "ProofOfExistence",
  "abi": [
    {
      "constant": false,
      "inputs": [
        {
          "internalType": "string",
          "name": "document",
          "type": "string"
        }
      ],
      "name": "notarize",
      "outputs": [],
      "payable": false,
      "stateMutability": "nonpayable",
      "type": "function"
    },
    {
      "constant": true,
      "inputs": [
        {
          "internalType": "string",
          "name": "document",
          "type": "string"
        }
      ],
      "name": "checkDocument",
      "outputs": [
        {
          "internalType": "bool",
          "name": "",
          "type": "bool"
        }
      ],
      "payable": false,
      "stateMutability": "view",
      "type": "function"
    }
  ],
  "bytecode": "0x608060405234801561001057600080fd5b50610335806100206000396000f3fe608060405234801561001057600080fd5b50600436106100365760003560e01c806353fb92331461003b5780637183616c1461010e575b600080fd5b6100f46004803603602081101561005157600080fd5b810190808035906020019064010000000081111561006e57600080fd5b82018360208201111561008057600080fd5b803590602001918460018302840111640100000000831117156100a257600080fd5b91908080601f016020809104026020016040519081016040528093929190818152602001838380828437600081840152601f19601f8201169050808301925050505050505091929192905050506101c9565b604051808215151515815260200191505060405180910390f35b6101c76004803603602081101561012457600080fd5b810190808035906020019064010000000081111561014157600080fd5b82018360208201111561015357600080fd5b8035906020019184600183028401116401000000008311171561017557600080fd5b91908080601f016020809104026020016040519081016040528093929190818152602001838380828437600081840152601f19601f8201169050808301925050505050505091929192905050506101e8565b005b6000806101d583610202565b90506101e0816102a9565b915050919050565b60006101f382610202565b90506101fe816102d2565b5050565b60006002826040518082805190602001908083835b6020831061023a5780518252602082019150602081019050602083039250610217565b6001836020036101000a038019825116818451168082178552505050505050905001915050602060405180830381855afa15801561027c573d6000803e3d6000fd5b5050506040513d602081101561029157600080fd5b81019080805190602001909291905050509050919050565b600080600083815260200190815260200160002060009054906101000a900460ff169050919050565b600160008083815260200190815260200160002060006101000a81548160ff0219169083151502179055505056fea265627a7a72315820680381ae56f4e7c45eea9e8739257f5135af6987fb938e0351b62901833c6aaf64736f6c634300050c0032",
  "source": "pragma solidity ^0.5.0;\n\ncontract ProofOfExistence {\n    mapping (bytes32 => bool) private proofs;\n\n    function notarize(string memory document) public {\n        bytes32 proof = proofFor(document);\n        storeProof(proof);\n    }\n\n    function checkDocument(string memory document) public view returns (bool) {\n        bytes32 proof = proofFor(document);\n        return proofExists(proof);\n    }\n\n    function storeProof(bytes32 proof) private {\n        proofs[proof] = true;\n    }\n\n    function proofFor(string memory document) private pure returns (bytes32) {\n        return sha256(bytes(document));\n    }\n\n    function proofExists(bytes32 proof) private view returns (bool) {\n        return proofs[proof];\n    }\n}",
  "sourcePath": "/home/mustafa/Code/solidity/Proof-of-existence-implementation-in-Solidity/contracts/ProofOfExistence.sol",
  "compiler": {
    "name": "solc",
    "version": "0.5.12+commit.7709ece9.Emscripten.clang"
  },
  "schemaVersion": "3.0.19",
  "updatedAt": "2019-12-11T04:06:40.874Z",
  "devdoc": {
    "methods": {}
  },
  "userdoc": {
    "methods": {}
  }
}